{
  "contractName": "WillVersionControl",
  "abi": [
    {
      "anonymous": false,
      "inputs": [
        {
          "indexed": false,
          "internalType": "uint256",
          "name": "version",
          "type": "uint256"
        },
        {
          "indexed": false,
          "internalType": "address",
          "name": "uploader",
          "type": "address"
        },
        {
          "indexed": false,
          "internalType": "uint256",
          "name": "timestamp",
          "type": "uint256"
        }
      ],
      "name": "NewWillVersion",
      "type": "event"
    },
    {
      "inputs": [],
      "name": "currentVersion",
      "outputs": [
        {
          "internalType": "uint256",
          "name": "",
          "type": "uint256"
        }
      ],
      "stateMutability": "view",
      "type": "function"
    },
    {
      "inputs": [
        {
          "internalType": "uint256",
          "name": "",
          "type": "uint256"
        }
      ],
      "name": "willVersions",
      "outputs": [
        {
          "internalType": "string",
          "name": "fileHash",
          "type": "string"
        },
        {
          "internalType": "uint256",
          "name": "version",
          "type": "uint256"
        },
        {
          "internalType": "uint256",
          "name": "timestamp",
          "type": "uint256"
        },
        {
          "internalType": "address",
          "name": "uploader",
          "type": "address"
        }
      ],
      "stateMutability": "view",
      "type": "function"
    },
    {
      "inputs": [
        {
          "internalType": "string",
          "name": "fileHash",
          "type": "string"
        }
      ],
      "name": "uploadWill",
      "outputs": [],
      "stateMutability": "nonpayable",
      "type": "function"
    },
    {
      "inputs": [
        {
          "internalType": "uint256",
          "name": "version",
          "type": "uint256"
        }
      ],
      "name": "getWillVersion",
      "outputs": [
        {
          "components": [
            {
              "internalType": "string",
              "name": "fileHash",
              "type": "string"
            },
            {
              "internalType": "uint256",
              "name": "version",
              "type": "uint256"
            },
            {
              "internalType": "uint256",
              "name": "timestamp",
              "type": "uint256"
            },
            {
              "internalType": "address",
              "name": "uploader",
              "type": "address"
            }
          ],
          "internalType": "struct WillVersionControl.Will",
          "name": "",
          "type": "tuple"
        }
      ],
      "stateMutability": "view",
      "type": "function"
    }
  ],
  "bytecode": "0x608060405234801561000f575f80fd5b50610c768061001d5f395ff3fe608060405234801561000f575f80fd5b506004361061004a575f3560e01c80637144d4121461004e5780639660f123146100815780639d888e86146100b1578063cb1a1f60146100cf575b5f80fd5b610068600480360381019061006391906104bb565b6100eb565b60405161007894939291906105be565b60405180910390f35b61009b600480360381019061009691906104bb565b6101bb565b6040516100a891906106ce565b60405180910390f35b6100b9610322565b6040516100c691906106ee565b60405180910390f35b6100e960048036038101906100e49190610833565b610328565b005b5f602052805f5260405f205f91509050805f018054610109906108a7565b80601f0160208091040260200160405190810160405280929190818152602001828054610135906108a7565b80156101805780601f1061015757610100808354040283529160200191610180565b820191905f5260205f20905b81548152906001019060200180831161016357829003601f168201915b505050505090806001015490806002015490806003015f9054906101000a900473ffffffffffffffffffffffffffffffffffffffff16905084565b6101c361043c565b600154821115610208576040517f08c379a00000000000000000000000000000000000000000000000000000000081526004016101ff90610921565b60405180910390fd5b5f808381526020019081526020015f206040518060800160405290815f82018054610232906108a7565b80601f016020809104026020016040519081016040528092919081815260200182805461025e906108a7565b80156102a95780601f10610280576101008083540402835291602001916102a9565b820191905f5260205f20905b81548152906001019060200180831161028c57829003601f168201915b505050505081526020016001820154815260200160028201548152602001600382015f9054906101000a900473ffffffffffffffffffffffffffffffffffffffff1673ffffffffffffffffffffffffffffffffffffffff1673ffffffffffffffffffffffffffffffffffffffff16815250509050919050565b60015481565b5f60018054610337919061096c565b9050806001819055505f60405180608001604052808481526020018381526020014281526020013373ffffffffffffffffffffffffffffffffffffffff168152509050805f808481526020019081526020015f205f820151815f01908161039e9190610b3c565b5060208201518160010155604082015181600201556060820151816003015f6101000a81548173ffffffffffffffffffffffffffffffffffffffff021916908373ffffffffffffffffffffffffffffffffffffffff1602179055509050507fcb052751e31069d4cc01eeca1888de3b72f707da46dd1265195c1cade6636edc82334260405161042f93929190610c0b565b60405180910390a1505050565b6040518060800160405280606081526020015f81526020015f81526020015f73ffffffffffffffffffffffffffffffffffffffff1681525090565b5f604051905090565b5f80fd5b5f80fd5b5f819050919050565b61049a81610488565b81146104a4575f80fd5b50565b5f813590506104b581610491565b92915050565b5f602082840312156104d0576104cf610480565b5b5f6104dd848285016104a7565b91505092915050565b5f81519050919050565b5f82825260208201905092915050565b5f5b8381101561051d578082015181840152602081019050610502565b5f8484015250505050565b5f601f19601f8301169050919050565b5f610542826104e6565b61054c81856104f0565b935061055c818560208601610500565b61056581610528565b840191505092915050565b61057981610488565b82525050565b5f73ffffffffffffffffffffffffffffffffffffffff82169050919050565b5f6105a88261057f565b9050919050565b6105b88161059e565b82525050565b5f6080820190508181035f8301526105d68187610538565b90506105e56020830186610570565b6105f26040830185610570565b6105ff60608301846105af565b95945050505050565b5f82825260208201905092915050565b5f610622826104e6565b61062c8185610608565b935061063c818560208601610500565b61064581610528565b840191505092915050565b61065981610488565b82525050565b6106688161059e565b82525050565b5f608083015f8301518482035f8601526106888282610618565b915050602083015161069d6020860182610650565b5060408301516106b06040860182610650565b5060608301516106c3606086018261065f565b508091505092915050565b5f6020820190508181035f8301526106e6818461066e565b905092915050565b5f6020820190506107015f830184610570565b92915050565b5f80fd5b5f80fd5b7f4e487b71000000000000000000000000000000000000000000000000000000005f52604160045260245ffd5b61074582610528565b810181811067ffffffffffffffff821117156107645761076361070f565b5b80604052505050565b5f610776610477565b9050610782828261073c565b919050565b5f67ffffffffffffffff8211156107a1576107a061070f565b5b6107aa82610528565b9050602081019050919050565b828183375f83830152505050565b5f6107d76107d284610787565b61076d565b9050828152602081018484840111156107f3576107f261070b565b5b6107fe8482856107b7565b509392505050565b5f82601f83011261081a57610819610707565b5b813561082a8482602086016107c5565b91505092915050565b5f6020828403121561084857610847610480565b5b5f82013567ffffffffffffffff81111561086557610864610484565b5b61087184828501610806565b91505092915050565b7f4e487b71000000000000000000000000000000000000000000000000000000005f52602260045260245ffd5b5f60028204905060018216806108be57607f821691505b6020821081036108d1576108d061087a565b5b50919050565b7f496e76616c69642076657273696f6e00000000000000000000000000000000005f82015250565b5f61090b600f836104f0565b9150610916826108d7565b602082019050919050565b5f6020820190508181035f830152610938816108ff565b9050919050565b7f4e487b71000000000000000000000000000000000000000000000000000000005f52601160045260245ffd5b5f61097682610488565b915061098183610488565b92508282019050808211156109995761099861093f565b5b92915050565b5f819050815f5260205f209050919050565b5f6020601f8301049050919050565b5f82821b905092915050565b5f600883026109fb7fffffffffffffffffffffffffffffffffffffffffffffffffffffffffffffffff826109c0565b610a0586836109c0565b95508019841693508086168417925050509392505050565b5f819050919050565b5f610a40610a3b610a3684610488565b610a1d565b610488565b9050919050565b5f819050919050565b610a5983610a26565b610a6d610a6582610a47565b8484546109cc565b825550505050565b5f90565b610a81610a75565b610a8c818484610a50565b505050565b5b81811015610aaf57610aa45f82610a79565b600181019050610a92565b5050565b601f821115610af457610ac58161099f565b610ace846109b1565b81016020851015610add578190505b610af1610ae9856109b1565b830182610a91565b50505b505050565b5f82821c905092915050565b5f610b145f1984600802610af9565b1980831691505092915050565b5f610b2c8383610b05565b9150826002028217905092915050565b610b45826104e6565b67ffffffffffffffff811115610b5e57610b5d61070f565b5b610b6882546108a7565b610b73828285610ab3565b5f60209050601f831160018114610ba4575f8415610b92578287015190505b610b9c8582610b21565b865550610c03565b601f198416610bb28661099f565b5f5b82811015610bd957848901518255600182019150602085019450602081019050610bb4565b86831015610bf65784890151610bf2601f891682610b05565b8355505b6001600288020188555050505b505050505050565b5f606082019050610c1e5f830186610570565b610c2b60208301856105af565b610c386040830184610570565b94935050505056fea26469706673582212200c7ffbe4ece8da89b481d3b30c1789f2f35e212e9e664b3def34278feced307f64736f6c63430008150033",
  "immutableReferences": {},
  "source": "// SPDX-License-Identifier: MIT\r\npragma solidity ^0.8.0;\r\n\r\ncontract WillVersionControl {\r\n    struct Will {\r\n        string fileHash; // The IPFS or off-chain file hash\r\n        uint256 version;\r\n        uint256 timestamp;\r\n        address uploader;\r\n    }\r\n    \r\n    mapping(uint256 => Will) public willVersions;\r\n    uint256 public currentVersion;\r\n    \r\n    // Event to notify about new will versions\r\n    event NewWillVersion(uint256 version, address uploader, uint256 timestamp);\r\n\r\n    // Function to upload or update the will\r\n    function uploadWill(string memory fileHash) public {\r\n        uint256 version = currentVersion + 1;\r\n        currentVersion = version;\r\n\r\n        Will memory newWill = Will({\r\n            fileHash: fileHash,\r\n            version: version,\r\n            timestamp: block.timestamp,\r\n            uploader: msg.sender\r\n        });\r\n        \r\n        willVersions[version] = newWill;\r\n        \r\n        emit NewWillVersion(version, msg.sender, block.timestamp);\r\n    }\r\n\r\n    // Function to retrieve the will's metadata\r\n    function getWillVersion(uint256 version) public view returns (Will memory) {\r\n        require(version <= currentVersion, \"Invalid version\");\r\n        return willVersions[version];\r\n    }\r\n}\r\n",
  "sourcePath": "C:\\Shabbir\\Projects\\Final_Year_Project\\Will_Project\\contracts\\WillVersionControl.sol",
  "compiler": {
    "name": "solc",
    "version": "0.8.21+commit.d9974bed.Emscripten.clang"
  },
  "schemaVersion": "3.4.16",
  "updatedAt": "2024-11-21T06:06:10.836Z",
  "devdoc": {
    "kind": "dev",
    "methods": {},
    "version": 1
  },
  "userdoc": {
    "kind": "user",
    "methods": {},
    "version": 1
  }
}